{
  "_format": "hh-sol-artifact-1",
  "contractName": "zkMint",
  "sourceName": "contracts/zkMint.sol",
  "abi": [
    {
      "inputs": [
        {
          "internalType": "contract Verifier",
          "name": "_verifier",
          "type": "address"
        }
      ],
      "stateMutability": "nonpayable",
      "type": "constructor"
    },
    {
      "inputs": [
        {
          "internalType": "address",
          "name": "sender",
          "type": "address"
        },
        {
          "internalType": "uint256",
          "name": "tokenId",
          "type": "uint256"
        },
        {
          "internalType": "address",
          "name": "owner",
          "type": "address"
        }
      ],
      "name": "ERC721IncorrectOwner",
      "type": "error"
    },
    {
      "inputs": [
        {
          "internalType": "address",
          "name": "operator",
          "type": "address"
        },
        {
          "internalType": "uint256",
          "name": "tokenId",
          "type": "uint256"
        }
      ],
      "name": "ERC721InsufficientApproval",
      "type": "error"
    },
    {
      "inputs": [
        {
          "internalType": "address",
          "name": "approver",
          "type": "address"
        }
      ],
      "name": "ERC721InvalidApprover",
      "type": "error"
    },
    {
      "inputs": [
        {
          "internalType": "address",
          "name": "operator",
          "type": "address"
        }
      ],
      "name": "ERC721InvalidOperator",
      "type": "error"
    },
    {
      "inputs": [
        {
          "internalType": "address",
          "name": "owner",
          "type": "address"
        }
      ],
      "name": "ERC721InvalidOwner",
      "type": "error"
    },
    {
      "inputs": [
        {
          "internalType": "address",
          "name": "receiver",
          "type": "address"
        }
      ],
      "name": "ERC721InvalidReceiver",
      "type": "error"
    },
    {
      "inputs": [
        {
          "internalType": "address",
          "name": "sender",
          "type": "address"
        }
      ],
      "name": "ERC721InvalidSender",
      "type": "error"
    },
    {
      "inputs": [
        {
          "internalType": "uint256",
          "name": "tokenId",
          "type": "uint256"
        }
      ],
      "name": "ERC721NonexistentToken",
      "type": "error"
    },
    {
      "anonymous": false,
      "inputs": [
        {
          "indexed": true,
          "internalType": "address",
          "name": "owner",
          "type": "address"
        },
        {
          "indexed": true,
          "internalType": "address",
          "name": "approved",
          "type": "address"
        },
        {
          "indexed": true,
          "internalType": "uint256",
          "name": "tokenId",
          "type": "uint256"
        }
      ],
      "name": "Approval",
      "type": "event"
    },
    {
      "anonymous": false,
      "inputs": [
        {
          "indexed": true,
          "internalType": "address",
          "name": "owner",
          "type": "address"
        },
        {
          "indexed": true,
          "internalType": "address",
          "name": "operator",
          "type": "address"
        },
        {
          "indexed": false,
          "internalType": "bool",
          "name": "approved",
          "type": "bool"
        }
      ],
      "name": "ApprovalForAll",
      "type": "event"
    },
    {
      "anonymous": false,
      "inputs": [
        {
          "indexed": true,
          "internalType": "address",
          "name": "from",
          "type": "address"
        },
        {
          "indexed": true,
          "internalType": "address",
          "name": "to",
          "type": "address"
        },
        {
          "indexed": true,
          "internalType": "uint256",
          "name": "tokenId",
          "type": "uint256"
        }
      ],
      "name": "Transfer",
      "type": "event"
    },
    {
      "inputs": [
        {
          "internalType": "address",
          "name": "to",
          "type": "address"
        },
        {
          "internalType": "uint256",
          "name": "tokenId",
          "type": "uint256"
        }
      ],
      "name": "approve",
      "outputs": [],
      "stateMutability": "nonpayable",
      "type": "function"
    },
    {
      "inputs": [
        {
          "internalType": "address",
          "name": "owner",
          "type": "address"
        }
      ],
      "name": "balanceOf",
      "outputs": [
        {
          "internalType": "uint256",
          "name": "",
          "type": "uint256"
        }
      ],
      "stateMutability": "view",
      "type": "function"
    },
    {
      "inputs": [
        {
          "internalType": "uint256",
          "name": "tokenId",
          "type": "uint256"
        }
      ],
      "name": "getApproved",
      "outputs": [
        {
          "internalType": "address",
          "name": "",
          "type": "address"
        }
      ],
      "stateMutability": "view",
      "type": "function"
    },
    {
      "inputs": [],
      "name": "hash",
      "outputs": [
        {
          "internalType": "uint256",
          "name": "",
          "type": "uint256"
        }
      ],
      "stateMutability": "view",
      "type": "function"
    },
    {
      "inputs": [
        {
          "internalType": "address",
          "name": "owner",
          "type": "address"
        },
        {
          "internalType": "address",
          "name": "operator",
          "type": "address"
        }
      ],
      "name": "isApprovedForAll",
      "outputs": [
        {
          "internalType": "bool",
          "name": "",
          "type": "bool"
        }
      ],
      "stateMutability": "view",
      "type": "function"
    },
    {
      "inputs": [
        {
          "internalType": "uint256",
          "name": "_nullifier",
          "type": "uint256"
        },
        {
          "internalType": "uint256[2]",
          "name": "_a",
          "type": "uint256[2]"
        },
        {
          "internalType": "uint256[2][2]",
          "name": "_b",
          "type": "uint256[2][2]"
        },
        {
          "internalType": "uint256[2]",
          "name": "_c",
          "type": "uint256[2]"
        }
      ],
      "name": "mintWithProof",
      "outputs": [
        {
          "internalType": "bool",
          "name": "res",
          "type": "bool"
        }
      ],
      "stateMutability": "nonpayable",
      "type": "function"
    },
    {
      "inputs": [],
      "name": "name",
      "outputs": [
        {
          "internalType": "string",
          "name": "",
          "type": "string"
        }
      ],
      "stateMutability": "view",
      "type": "function"
    },
    {
      "inputs": [],
      "name": "nextTokenId",
      "outputs": [
        {
          "internalType": "uint256",
          "name": "",
          "type": "uint256"
        }
      ],
      "stateMutability": "view",
      "type": "function"
    },
    {
      "inputs": [
        {
          "internalType": "uint256",
          "name": "",
          "type": "uint256"
        }
      ],
      "name": "nullifiers",
      "outputs": [
        {
          "internalType": "bool",
          "name": "",
          "type": "bool"
        }
      ],
      "stateMutability": "view",
      "type": "function"
    },
    {
      "inputs": [
        {
          "internalType": "uint256",
          "name": "tokenId",
          "type": "uint256"
        }
      ],
      "name": "ownerOf",
      "outputs": [
        {
          "internalType": "address",
          "name": "",
          "type": "address"
        }
      ],
      "stateMutability": "view",
      "type": "function"
    },
    {
      "inputs": [
        {
          "internalType": "address",
          "name": "from",
          "type": "address"
        },
        {
          "internalType": "address",
          "name": "to",
          "type": "address"
        },
        {
          "internalType": "uint256",
          "name": "tokenId",
          "type": "uint256"
        }
      ],
      "name": "safeTransferFrom",
      "outputs": [],
      "stateMutability": "nonpayable",
      "type": "function"
    },
    {
      "inputs": [
        {
          "internalType": "address",
          "name": "from",
          "type": "address"
        },
        {
          "internalType": "address",
          "name": "to",
          "type": "address"
        },
        {
          "internalType": "uint256",
          "name": "tokenId",
          "type": "uint256"
        },
        {
          "internalType": "bytes",
          "name": "data",
          "type": "bytes"
        }
      ],
      "name": "safeTransferFrom",
      "outputs": [],
      "stateMutability": "nonpayable",
      "type": "function"
    },
    {
      "inputs": [
        {
          "internalType": "address",
          "name": "operator",
          "type": "address"
        },
        {
          "internalType": "bool",
          "name": "approved",
          "type": "bool"
        }
      ],
      "name": "setApprovalForAll",
      "outputs": [],
      "stateMutability": "nonpayable",
      "type": "function"
    },
    {
      "inputs": [
        {
          "internalType": "bytes4",
          "name": "interfaceId",
          "type": "bytes4"
        }
      ],
      "name": "supportsInterface",
      "outputs": [
        {
          "internalType": "bool",
          "name": "",
          "type": "bool"
        }
      ],
      "stateMutability": "view",
      "type": "function"
    },
    {
      "inputs": [],
      "name": "symbol",
      "outputs": [
        {
          "internalType": "string",
          "name": "",
          "type": "string"
        }
      ],
      "stateMutability": "view",
      "type": "function"
    },
    {
      "inputs": [
        {
          "internalType": "uint256",
          "name": "tokenId",
          "type": "uint256"
        }
      ],
      "name": "tokenURI",
      "outputs": [
        {
          "internalType": "string",
          "name": "",
          "type": "string"
        }
      ],
      "stateMutability": "view",
      "type": "function"
    },
    {
      "inputs": [
        {
          "internalType": "address",
          "name": "from",
          "type": "address"
        },
        {
          "internalType": "address",
          "name": "to",
          "type": "address"
        },
        {
          "internalType": "uint256",
          "name": "tokenId",
          "type": "uint256"
        }
      ],
      "name": "transferFrom",
      "outputs": [],
      "stateMutability": "nonpayable",
      "type": "function"
    },
    {
      "inputs": [],
      "name": "verifier",
      "outputs": [
        {
          "internalType": "contract Verifier",
          "name": "",
          "type": "address"
        }
      ],
      "stateMutability": "view",
      "type": "function"
    }
  ],
  "bytecode": "0x60806040527f1e41a127d0e3fdbd7fe21514926777d6f1bc8b4fb542e68921a87415d3e870e86006553480156200003557600080fd5b5060405162002c8238038062002c8283398181016040528101906200005b9190620001b3565b6040518060400160405280600b81526020017f5a4b4d494e54544f4b454e0000000000000000000000000000000000000000008152506040518060400160405280600581526020017f5a4b4d4e540000000000000000000000000000000000000000000000000000008152508160009081620000d891906200045f565b508060019081620000ea91906200045f565b50505080600860006101000a81548173ffffffffffffffffffffffffffffffffffffffff021916908373ffffffffffffffffffffffffffffffffffffffff1602179055505062000546565b600080fd5b600073ffffffffffffffffffffffffffffffffffffffff82169050919050565b600062000167826200013a565b9050919050565b60006200017b826200015a565b9050919050565b6200018d816200016e565b81146200019957600080fd5b50565b600081519050620001ad8162000182565b92915050565b600060208284031215620001cc57620001cb62000135565b5b6000620001dc848285016200019c565b91505092915050565b600081519050919050565b7f4e487b7100000000000000000000000000000000000000000000000000000000600052604160045260246000fd5b7f4e487b7100000000000000000000000000000000000000000000000000000000600052602260045260246000fd5b600060028204905060018216806200026757607f821691505b6020821081036200027d576200027c6200021f565b5b50919050565b60008190508160005260206000209050919050565b60006020601f8301049050919050565b600082821b905092915050565b600060088302620002e77fffffffffffffffffffffffffffffffffffffffffffffffffffffffffffffffff82620002a8565b620002f38683620002a8565b95508019841693508086168417925050509392505050565b6000819050919050565b6000819050919050565b6000620003406200033a62000334846200030b565b62000315565b6200030b565b9050919050565b6000819050919050565b6200035c836200031f565b620003746200036b8262000347565b848454620002b5565b825550505050565b600090565b6200038b6200037c565b6200039881848462000351565b505050565b5b81811015620003c057620003b460008262000381565b6001810190506200039e565b5050565b601f8211156200040f57620003d98162000283565b620003e48462000298565b81016020851015620003f4578190505b6200040c620004038562000298565b8301826200039d565b50505b505050565b600082821c905092915050565b6000620004346000198460080262000414565b1980831691505092915050565b60006200044f838362000421565b9150826002028217905092915050565b6200046a82620001e5565b67ffffffffffffffff811115620004865762000485620001f0565b5b6200049282546200024e565b6200049f828285620003c4565b600060209050601f831160018114620004d75760008415620004c2578287015190505b620004ce858262000441565b8655506200053e565b601f198416620004e78662000283565b60005b828110156200051157848901518255600182019150602085019450602081019050620004ea565b868310156200053157848901516200052d601f89168262000421565b8355505b6001600288020188555050505b505050505050565b61272c80620005566000396000f3fe608060405234801561001057600080fd5b50600436106101155760003560e01c80636352211e116100a2578063a22cb46511610071578063a22cb465146102f4578063b88d4fde14610310578063c87b56dd1461032c578063d21e82ab1461035c578063e985e9c51461038c57610115565b80636352211e1461025857806370a082311461028857806375794a3c146102b857806395d89b41146102d657610115565b8063095ea7b3116100e9578063095ea7b3146101c857806309bd5a60146101e457806323b872dd146102025780632b7ac3f31461021e57806342842e0e1461023c57610115565b80625077e91461011a57806301ffc9a71461014a57806306fdde031461017a578063081812fc14610198575b600080fd5b610134600480360381019061012f9190611afe565b6103bc565b6040516101419190611b81565b60405180910390f35b610164600480360381019061015f9190611bf4565b610599565b6040516101719190611b81565b60405180910390f35b61018261067b565b60405161018f9190611ca0565b60405180910390f35b6101b260048036038101906101ad9190611cc2565b61070d565b6040516101bf9190611d30565b60405180910390f35b6101e260048036038101906101dd9190611d77565b610729565b005b6101ec61073f565b6040516101f99190611dc6565b60405180910390f35b61021c60048036038101906102179190611de1565b610745565b005b610226610847565b6040516102339190611e93565b60405180910390f35b61025660048036038101906102519190611de1565b61086d565b005b610272600480360381019061026d9190611cc2565b61088d565b60405161027f9190611d30565b60405180910390f35b6102a2600480360381019061029d9190611eae565b61089f565b6040516102af9190611dc6565b60405180910390f35b6102c0610959565b6040516102cd9190611dc6565b60405180910390f35b6102de61095f565b6040516102eb9190611ca0565b60405180910390f35b61030e60048036038101906103099190611f07565b6109f1565b005b61032a60048036038101906103259190611ffc565b610a07565b005b61034660048036038101906103419190611cc2565b610a24565b6040516103539190611ca0565b60405180910390f35b61037660048036038101906103719190611cc2565b610a8d565b6040516103839190611b81565b60405180910390f35b6103a660048036038101906103a1919061207f565b610aad565b6040516103b39190611b81565b60405180910390f35b60008015156009600087815260200190815260200160002060009054906101000a900460ff16151514610424576040517f08c379a000000000000000000000000000000000000000000000000000000000815260040161041b9061210b565b60405180910390fd5b6000604051806060016040528087815260200160065481526020013373ffffffffffffffffffffffffffffffffffffffff168152509050600860009054906101000a900473ffffffffffffffffffffffffffffffffffffffff1673ffffffffffffffffffffffffffffffffffffffff166311479fea868686856040518563ffffffff1660e01b81526004016104bc9493929190612358565b602060405180830381865afa1580156104d9573d6000803e3d6000fd5b505050506040513d601f19601f820116820180604052508101906104fd91906123b4565b61053c576040517f08c379a00000000000000000000000000000000000000000000000000000000081526004016105339061242d565b60405180910390fd5b60016009600088815260200190815260200160002060006101000a81548160ff02191690831515021790555061057433600754610b41565b600760008154809291906105879061247c565b91905055506001915050949350505050565b60007f80ac58cd000000000000000000000000000000000000000000000000000000007bffffffffffffffffffffffffffffffffffffffffffffffffffffffff1916827bffffffffffffffffffffffffffffffffffffffffffffffffffffffff1916148061066457507f5b5e139f000000000000000000000000000000000000000000000000000000007bffffffffffffffffffffffffffffffffffffffffffffffffffffffff1916827bffffffffffffffffffffffffffffffffffffffffffffffffffffffff1916145b80610674575061067382610b5f565b5b9050919050565b60606000805461068a906124f3565b80601f01602080910402602001604051908101604052809291908181526020018280546106b6906124f3565b80156107035780601f106106d857610100808354040283529160200191610703565b820191906000526020600020905b8154815290600101906020018083116106e657829003601f168201915b5050505050905090565b600061071882610bc9565b5061072282610c51565b9050919050565b61073b8282610736610c8e565b610c96565b5050565b60065481565b600073ffffffffffffffffffffffffffffffffffffffff168273ffffffffffffffffffffffffffffffffffffffff16036107b75760006040517f64a0ae920000000000000000000000000000000000000000000000000000000081526004016107ae9190611d30565b60405180910390fd5b60006107cb83836107c6610c8e565b610ca8565b90508373ffffffffffffffffffffffffffffffffffffffff168173ffffffffffffffffffffffffffffffffffffffff1614610841578382826040517f64283d7b00000000000000000000000000000000000000000000000000000000815260040161083893929190612524565b60405180910390fd5b50505050565b600860009054906101000a900473ffffffffffffffffffffffffffffffffffffffff1681565b61088883838360405180602001604052806000815250610a07565b505050565b600061089882610bc9565b9050919050565b60008073ffffffffffffffffffffffffffffffffffffffff168273ffffffffffffffffffffffffffffffffffffffff16036109125760006040517f89c62b640000000000000000000000000000000000000000000000000000000081526004016109099190611d30565b60405180910390fd5b600360008373ffffffffffffffffffffffffffffffffffffffff1673ffffffffffffffffffffffffffffffffffffffff168152602001908152602001600020549050919050565b60075481565b60606001805461096e906124f3565b80601f016020809104026020016040519081016040528092919081815260200182805461099a906124f3565b80156109e75780601f106109bc576101008083540402835291602001916109e7565b820191906000526020600020905b8154815290600101906020018083116109ca57829003601f168201915b5050505050905090565b610a036109fc610c8e565b8383610ec2565b5050565b610a12848484610745565b610a1e84848484611031565b50505050565b6060610a2f82610bc9565b506000610a3a6111e8565b90506000815111610a5a5760405180602001604052806000815250610a85565b80610a64846111ff565b604051602001610a75929190612597565b6040516020818303038152906040525b915050919050565b60096020528060005260406000206000915054906101000a900460ff1681565b6000600560008473ffffffffffffffffffffffffffffffffffffffff1673ffffffffffffffffffffffffffffffffffffffff16815260200190815260200160002060008373ffffffffffffffffffffffffffffffffffffffff1673ffffffffffffffffffffffffffffffffffffffff16815260200190815260200160002060009054906101000a900460ff16905092915050565b610b5b8282604051806020016040528060008152506112cd565b5050565b60007f01ffc9a7000000000000000000000000000000000000000000000000000000007bffffffffffffffffffffffffffffffffffffffffffffffffffffffff1916827bffffffffffffffffffffffffffffffffffffffffffffffffffffffff1916149050919050565b600080610bd5836112e9565b9050600073ffffffffffffffffffffffffffffffffffffffff168173ffffffffffffffffffffffffffffffffffffffff1603610c4857826040517f7e273289000000000000000000000000000000000000000000000000000000008152600401610c3f9190611dc6565b60405180910390fd5b80915050919050565b60006004600083815260200190815260200160002060009054906101000a900473ffffffffffffffffffffffffffffffffffffffff169050919050565b600033905090565b610ca38383836001611326565b505050565b600080610cb4846112e9565b9050600073ffffffffffffffffffffffffffffffffffffffff168373ffffffffffffffffffffffffffffffffffffffff1614610cf657610cf58184866114eb565b5b600073ffffffffffffffffffffffffffffffffffffffff168173ffffffffffffffffffffffffffffffffffffffff1614610d8757610d38600085600080611326565b6001600360008373ffffffffffffffffffffffffffffffffffffffff1673ffffffffffffffffffffffffffffffffffffffff168152602001908152602001600020600082825403925050819055505b600073ffffffffffffffffffffffffffffffffffffffff168573ffffffffffffffffffffffffffffffffffffffff1614610e0a576001600360008773ffffffffffffffffffffffffffffffffffffffff1673ffffffffffffffffffffffffffffffffffffffff168152602001908152602001600020600082825401925050819055505b846002600086815260200190815260200160002060006101000a81548173ffffffffffffffffffffffffffffffffffffffff021916908373ffffffffffffffffffffffffffffffffffffffff160217905550838573ffffffffffffffffffffffffffffffffffffffff168273ffffffffffffffffffffffffffffffffffffffff167fddf252ad1be2c89b69c2b068fc378daa952ba7f163c4a11628f55a4df523b3ef60405160405180910390a4809150509392505050565b600073ffffffffffffffffffffffffffffffffffffffff168273ffffffffffffffffffffffffffffffffffffffff1603610f3357816040517f5b08ba18000000000000000000000000000000000000000000000000000000008152600401610f2a9190611d30565b60405180910390fd5b80600560008573ffffffffffffffffffffffffffffffffffffffff1673ffffffffffffffffffffffffffffffffffffffff16815260200190815260200160002060008473ffffffffffffffffffffffffffffffffffffffff1673ffffffffffffffffffffffffffffffffffffffff16815260200190815260200160002060006101000a81548160ff0219169083151502179055508173ffffffffffffffffffffffffffffffffffffffff168373ffffffffffffffffffffffffffffffffffffffff167f17307eab39ab6107e8899845ad3d59bd9653f200f220920489ca2b5937696c31836040516110249190611b81565b60405180910390a3505050565b60008373ffffffffffffffffffffffffffffffffffffffff163b11156111e2578273ffffffffffffffffffffffffffffffffffffffff1663150b7a02611075610c8e565b8685856040518563ffffffff1660e01b81526004016110979493929190612610565b6020604051808303816000875af19250505080156110d357506040513d601f19601f820116820180604052508101906110d09190612671565b60015b611157573d8060008114611103576040519150601f19603f3d011682016040523d82523d6000602084013e611108565b606091505b50600081510361114f57836040517f64a0ae920000000000000000000000000000000000000000000000000000000081526004016111469190611d30565b60405180910390fd5b805181602001fd5b63150b7a0260e01b7bffffffffffffffffffffffffffffffffffffffffffffffffffffffff1916817bffffffffffffffffffffffffffffffffffffffffffffffffffffffff1916146111e057836040517f64a0ae920000000000000000000000000000000000000000000000000000000081526004016111d79190611d30565b60405180910390fd5b505b50505050565b606060405180602001604052806000815250905090565b60606000600161120e846115af565b01905060008167ffffffffffffffff81111561122d5761122c61191c565b5b6040519080825280601f01601f19166020018201604052801561125f5781602001600182028036833780820191505090505b509050600082602001820190505b6001156112c2578080600190039150507f3031323334353637383961626364656600000000000000000000000000000000600a86061a8153600a85816112b6576112b561269e565b5b0494506000850361126d575b819350505050919050565b6112d78383611702565b6112e46000848484611031565b505050565b60006002600083815260200190815260200160002060009054906101000a900473ffffffffffffffffffffffffffffffffffffffff169050919050565b808061135f5750600073ffffffffffffffffffffffffffffffffffffffff168273ffffffffffffffffffffffffffffffffffffffff1614155b1561149357600061136f84610bc9565b9050600073ffffffffffffffffffffffffffffffffffffffff168373ffffffffffffffffffffffffffffffffffffffff16141580156113da57508273ffffffffffffffffffffffffffffffffffffffff168173ffffffffffffffffffffffffffffffffffffffff1614155b80156113ed57506113eb8184610aad565b155b1561142f57826040517fa9fbf51f0000000000000000000000000000000000000000000000000000000081526004016114269190611d30565b60405180910390fd5b811561149157838573ffffffffffffffffffffffffffffffffffffffff168273ffffffffffffffffffffffffffffffffffffffff167f8c5be1e5ebec7d5bd14f71427d1e84f3dd0314c0f7b2291e5b200ac8c7c3b92560405160405180910390a45b505b836004600085815260200190815260200160002060006101000a81548173ffffffffffffffffffffffffffffffffffffffff021916908373ffffffffffffffffffffffffffffffffffffffff16021790555050505050565b6114f68383836117fb565b6115aa57600073ffffffffffffffffffffffffffffffffffffffff168373ffffffffffffffffffffffffffffffffffffffff160361156b57806040517f7e2732890000000000000000000000000000000000000000000000000000000081526004016115629190611dc6565b60405180910390fd5b81816040517f177e802f0000000000000000000000000000000000000000000000000000000081526004016115a19291906126cd565b60405180910390fd5b505050565b600080600090507a184f03e93ff9f4daa797ed6e38ed64bf6a1f010000000000000000831061160d577a184f03e93ff9f4daa797ed6e38ed64bf6a1f01000000000000000083816116035761160261269e565b5b0492506040810190505b6d04ee2d6d415b85acef8100000000831061164a576d04ee2d6d415b85acef810000000083816116405761163f61269e565b5b0492506020810190505b662386f26fc10000831061167957662386f26fc10000838161166f5761166e61269e565b5b0492506010810190505b6305f5e10083106116a2576305f5e10083816116985761169761269e565b5b0492506008810190505b61271083106116c75761271083816116bd576116bc61269e565b5b0492506004810190505b606483106116ea57606483816116e0576116df61269e565b5b0492506002810190505b600a83106116f9576001810190505b80915050919050565b600073ffffffffffffffffffffffffffffffffffffffff168273ffffffffffffffffffffffffffffffffffffffff16036117745760006040517f64a0ae9200000000000000000000000000000000000000000000000000000000815260040161176b9190611d30565b60405180910390fd5b600061178283836000610ca8565b9050600073ffffffffffffffffffffffffffffffffffffffff168173ffffffffffffffffffffffffffffffffffffffff16146117f65760006040517f73c6ac6e0000000000000000000000000000000000000000000000000000000081526004016117ed9190611d30565b60405180910390fd5b505050565b60008073ffffffffffffffffffffffffffffffffffffffff168373ffffffffffffffffffffffffffffffffffffffff16141580156118b357508273ffffffffffffffffffffffffffffffffffffffff168473ffffffffffffffffffffffffffffffffffffffff16148061187457506118738484610aad565b5b806118b257508273ffffffffffffffffffffffffffffffffffffffff1661189a83610c51565b73ffffffffffffffffffffffffffffffffffffffff16145b5b90509392505050565b6000604051905090565b600080fd5b600080fd5b6000819050919050565b6118e3816118d0565b81146118ee57600080fd5b50565b600081359050611900816118da565b92915050565b600080fd5b6000601f19601f8301169050919050565b7f4e487b7100000000000000000000000000000000000000000000000000000000600052604160045260246000fd5b6119548261190b565b810181811067ffffffffffffffff821117156119735761197261191c565b5b80604052505050565b60006119866118bc565b9050611992828261194b565b919050565b600067ffffffffffffffff8211156119b2576119b161191c565b5b602082029050919050565b600080fd5b60006119d56119d084611997565b61197c565b905080602084028301858111156119ef576119ee6119bd565b5b835b81811015611a185780611a0488826118f1565b8452602084019350506020810190506119f1565b5050509392505050565b600082601f830112611a3757611a36611906565b5b6002611a448482856119c2565b91505092915050565b600067ffffffffffffffff821115611a6857611a6761191c565b5b602082029050919050565b6000611a86611a8184611a4d565b61197c565b90508060408402830185811115611aa057611a9f6119bd565b5b835b81811015611ac95780611ab58882611a22565b845260208401935050604081019050611aa2565b5050509392505050565b600082601f830112611ae857611ae7611906565b5b6002611af5848285611a73565b91505092915050565b6000806000806101208587031215611b1957611b186118c6565b5b6000611b27878288016118f1565b9450506020611b3887828801611a22565b9350506060611b4987828801611ad3565b92505060e0611b5a87828801611a22565b91505092959194509250565b60008115159050919050565b611b7b81611b66565b82525050565b6000602082019050611b966000830184611b72565b92915050565b60007fffffffff0000000000000000000000000000000000000000000000000000000082169050919050565b611bd181611b9c565b8114611bdc57600080fd5b50565b600081359050611bee81611bc8565b92915050565b600060208284031215611c0a57611c096118c6565b5b6000611c1884828501611bdf565b91505092915050565b600081519050919050565b600082825260208201905092915050565b60005b83811015611c5b578082015181840152602081019050611c40565b60008484015250505050565b6000611c7282611c21565b611c7c8185611c2c565b9350611c8c818560208601611c3d565b611c958161190b565b840191505092915050565b60006020820190508181036000830152611cba8184611c67565b905092915050565b600060208284031215611cd857611cd76118c6565b5b6000611ce6848285016118f1565b91505092915050565b600073ffffffffffffffffffffffffffffffffffffffff82169050919050565b6000611d1a82611cef565b9050919050565b611d2a81611d0f565b82525050565b6000602082019050611d456000830184611d21565b92915050565b611d5481611d0f565b8114611d5f57600080fd5b50565b600081359050611d7181611d4b565b92915050565b60008060408385031215611d8e57611d8d6118c6565b5b6000611d9c85828601611d62565b9250506020611dad858286016118f1565b9150509250929050565b611dc0816118d0565b82525050565b6000602082019050611ddb6000830184611db7565b92915050565b600080600060608486031215611dfa57611df96118c6565b5b6000611e0886828701611d62565b9350506020611e1986828701611d62565b9250506040611e2a868287016118f1565b9150509250925092565b6000819050919050565b6000611e59611e54611e4f84611cef565b611e34565b611cef565b9050919050565b6000611e6b82611e3e565b9050919050565b6000611e7d82611e60565b9050919050565b611e8d81611e72565b82525050565b6000602082019050611ea86000830184611e84565b92915050565b600060208284031215611ec457611ec36118c6565b5b6000611ed284828501611d62565b91505092915050565b611ee481611b66565b8114611eef57600080fd5b50565b600081359050611f0181611edb565b92915050565b60008060408385031215611f1e57611f1d6118c6565b5b6000611f2c85828601611d62565b9250506020611f3d85828601611ef2565b9150509250929050565b600080fd5b600067ffffffffffffffff821115611f6757611f6661191c565b5b611f708261190b565b9050602081019050919050565b82818337600083830152505050565b6000611f9f611f9a84611f4c565b61197c565b905082815260208101848484011115611fbb57611fba611f47565b5b611fc6848285611f7d565b509392505050565b600082601f830112611fe357611fe2611906565b5b8135611ff3848260208601611f8c565b91505092915050565b60008060008060808587031215612016576120156118c6565b5b600061202487828801611d62565b945050602061203587828801611d62565b9350506040612046878288016118f1565b925050606085013567ffffffffffffffff811115612067576120666118cb565b5b61207387828801611fce565b91505092959194509250565b60008060408385031215612096576120956118c6565b5b60006120a485828601611d62565b92505060206120b585828601611d62565b9150509250929050565b7f7a6b4d696e74203a206e756c6c69666965722075736564000000000000000000600082015250565b60006120f5601783611c2c565b9150612100826120bf565b602082019050919050565b60006020820190508181036000830152612124816120e8565b9050919050565b600060029050919050565b600081905092915050565b6000819050919050565b612154816118d0565b82525050565b6000612166838361214b565b60208301905092915050565b6000602082019050919050565b6121888161212b565b6121928184612136565b925061219d82612141565b8060005b838110156121ce5781516121b5878261215a565b96506121c083612172565b9250506001810190506121a1565b505050505050565b600060029050919050565b600081905092915050565b6000819050919050565b600081905092915050565b61220a8161212b565b61221481846121f6565b925061221f82612141565b8060005b83811015612250578151612237878261215a565b965061224283612172565b925050600181019050612223565b505050505050565b60006122648383612201565b60408301905092915050565b6000602082019050919050565b612286816121d6565b61229081846121e1565b925061229b826121ec565b8060005b838110156122cc5781516122b38782612258565b96506122be83612270565b92505060018101905061229f565b505050505050565b600060039050919050565b600081905092915050565b6000819050919050565b6000602082019050919050565b61230a816122d4565b61231481846122df565b925061231f826122ea565b8060005b83811015612350578151612337878261215a565b9650612342836122f4565b925050600181019050612323565b505050505050565b60006101608201905061236e600083018761217f565b61237b604083018661227d565b61238860c083018561217f565b612396610100830184612301565b95945050505050565b6000815190506123ae81611edb565b92915050565b6000602082840312156123ca576123c96118c6565b5b60006123d88482850161239f565b91505092915050565b7f7a6b4d696e74203a20696e76616c69642070726f6f6600000000000000000000600082015250565b6000612417601683611c2c565b9150612422826123e1565b602082019050919050565b600060208201905081810360008301526124468161240a565b9050919050565b7f4e487b7100000000000000000000000000000000000000000000000000000000600052601160045260246000fd5b6000612487826118d0565b91507fffffffffffffffffffffffffffffffffffffffffffffffffffffffffffffffff82036124b9576124b861244d565b5b600182019050919050565b7f4e487b7100000000000000000000000000000000000000000000000000000000600052602260045260246000fd5b6000600282049050600182168061250b57607f821691505b60208210810361251e5761251d6124c4565b5b50919050565b60006060820190506125396000830186611d21565b6125466020830185611db7565b6125536040830184611d21565b949350505050565b600081905092915050565b600061257182611c21565b61257b818561255b565b935061258b818560208601611c3d565b80840191505092915050565b60006125a38285612566565b91506125af8284612566565b91508190509392505050565b600081519050919050565b600082825260208201905092915050565b60006125e2826125bb565b6125ec81856125c6565b93506125fc818560208601611c3d565b6126058161190b565b840191505092915050565b60006080820190506126256000830187611d21565b6126326020830186611d21565b61263f6040830185611db7565b818103606083015261265181846125d7565b905095945050505050565b60008151905061266b81611bc8565b92915050565b600060208284031215612687576126866118c6565b5b60006126958482850161265c565b91505092915050565b7f4e487b7100000000000000000000000000000000000000000000000000000000600052601260045260246000fd5b60006040820190506126e26000830185611d21565b6126ef6020830184611db7565b939250505056fea2646970667358221220ff02a7fc874776700ccb601dbcb422dcb32deab505cb0b93bab00eb0b7e3d0df64736f6c63430008140033",
  "linkReferences": {},
  "deployedLinkReferences": {}
}